{
  "contractName": "Pubquiz",
  "abi": [
    {
      "constant": true,
      "inputs": [
        {
          "name": "",
          "type": "uint256"
        }
      ],
      "name": "teamAccts",
      "outputs": [
        {
          "name": "",
          "type": "address"
        }
      ],
      "payable": false,
      "stateMutability": "view",
      "type": "function"
    },
    {
      "constant": false,
      "inputs": [],
      "name": "PubQuiz",
      "outputs": [],
      "payable": false,
      "stateMutability": "nonpayable",
      "type": "function"
    },
    {
      "constant": false,
      "inputs": [
        {
          "name": "_address",
          "type": "address"
        },
        {
          "name": "_teamname",
          "type": "string"
        }
      ],
      "name": "setTeam",
      "outputs": [],
      "payable": false,
      "stateMutability": "nonpayable",
      "type": "function"
    },
    {
      "constant": true,
      "inputs": [],
      "name": "getTeamAccts",
      "outputs": [
        {
          "name": "",
          "type": "address[]"
        }
      ],
      "payable": false,
      "stateMutability": "view",
      "type": "function"
    },
    {
      "constant": true,
      "inputs": [
        {
          "name": "_address",
          "type": "address"
        }
      ],
      "name": "validTeam",
      "outputs": [
        {
          "name": "",
          "type": "bool"
        }
      ],
      "payable": false,
      "stateMutability": "view",
      "type": "function"
    },
    {
      "constant": true,
      "inputs": [
        {
          "name": "_address",
          "type": "address"
        }
      ],
      "name": "getTeam",
      "outputs": [
        {
          "name": "",
          "type": "string"
        },
        {
          "name": "",
          "type": "uint256"
        }
      ],
      "payable": false,
      "stateMutability": "view",
      "type": "function"
    },
    {
      "constant": true,
      "inputs": [
        {
          "name": "_index",
          "type": "uint256"
        }
      ],
      "name": "existingQuestion",
      "outputs": [
        {
          "name": "",
          "type": "bool"
        }
      ],
      "payable": false,
      "stateMutability": "view",
      "type": "function"
    },
    {
      "constant": false,
      "inputs": [
        {
          "name": "_rounds",
          "type": "uint256[]"
        },
        {
          "name": "_questionhashes",
          "type": "bytes32[]"
        }
      ],
      "name": "addQuestions",
      "outputs": [
        {
          "name": "",
          "type": "bool"
        }
      ],
      "payable": false,
      "stateMutability": "nonpayable",
      "type": "function"
    },
    {
      "constant": true,
      "inputs": [
        {
          "name": "index",
          "type": "uint256"
        }
      ],
      "name": "getQuestion",
      "outputs": [
        {
          "name": "",
          "type": "uint256"
        },
        {
          "name": "",
          "type": "bytes32"
        }
      ],
      "payable": false,
      "stateMutability": "view",
      "type": "function"
    }
  ],
  "bytecode": "0x6060604052341561000f57600080fd5b610a798061001e6000396000f300606060405260043610610099576000357c0100000000000000000000000000000000000000000000000000000000900463ffffffff168063173a09c41461009e57806322fb9325146100d95780635fc09ee61461015557806387529f0f146101b857806390a9482314610271578063bf6e22b714610323578063c3ba0c8c1461038d578063d4f3d77c146103a2578063db88176f146103f3575b600080fd5b34156100a957600080fd5b6100bf6004808035906020019091905050610439565b604051808215151515815260200191505060405180910390f35b34156100e457600080fd5b610153600480803573ffffffffffffffffffffffffffffffffffffffff1690602001909190803590602001908201803590602001908080601f01602080910402602001604051908101604052809392919081815260200183838082843782019150505050505091905050610457565b005b341561016057600080fd5b6101766004808035906020019091905050610539565b604051808273ffffffffffffffffffffffffffffffffffffffff1673ffffffffffffffffffffffffffffffffffffffff16815260200191505060405180910390f35b34156101c357600080fd5b6101ef600480803573ffffffffffffffffffffffffffffffffffffffff16906020019091905050610578565b6040518080602001838152602001828103825284818151815260200191508051906020019080838360005b8381101561023557808201518184015260208101905061021a565b50505050905090810190601f1680156102625780820380516001836020036101000a031916815260200191505b50935050505060405180910390f35b341561027c57600080fd5b61030960048080359060200190820180359060200190808060200260200160405190810160405280939291908181526020018383602002808284378201915050505050509190803590602001908201803590602001908080602002602001604051908101604052809392919081815260200183836020028082843782019150505050505091905050610686565b604051808215151515815260200191505060405180910390f35b341561032e57600080fd5b610336610748565b6040518080602001828103825283818151815260200191508051906020019060200280838360005b8381101561037957808201518184015260208101905061035e565b505050509050019250505060405180910390f35b341561039857600080fd5b6103a06107dc565b005b34156103ad57600080fd5b6103d9600480803573ffffffffffffffffffffffffffffffffffffffff169060200190919050506107e6565b604051808215151515815260200191505060405180910390f35b34156103fe57600080fd5b610414600480803590602001909190505061088a565b6040518083815260200182600019166000191681526020019250505060405180910390f35b600080821015801561045057506003805490508211155b9050919050565b6000610462836107e6565b15151561046e57600080fd5b6000808473ffffffffffffffffffffffffffffffffffffffff1673ffffffffffffffffffffffffffffffffffffffff1681526020019081526020016000209050818160000190805190602001906104c69291906108d6565b5060008160010181905550600180548060010182816104e59190610956565b9160005260206000209001600085909190916101000a81548173ffffffffffffffffffffffffffffffffffffffff021916908373ffffffffffffffffffffffffffffffffffffffff16021790555050505050565b60018181548110151561054857fe5b90600052602060002090016000915054906101000a900473ffffffffffffffffffffffffffffffffffffffff1681565b610580610982565b60008061058c846107e6565b151561059757600080fd5b6000808573ffffffffffffffffffffffffffffffffffffffff1673ffffffffffffffffffffffffffffffffffffffff1681526020019081526020016000209050806000018160010154818054600181600116156101000203166002900480601f0160208091040260200160405190810160405280929190818152602001828054600181600116156101000203166002900480156106755780601f1061064a57610100808354040283529160200191610675565b820191906000526020600020905b81548152906001019060200180831161065857829003601f168201915b505050505091509250925050915091565b600080610691610996565b600091505b835182101561073c57604080519081016040528086848151811015156106b857fe5b90602001906020020151815260200185848151811015156106d557fe5b90602001906020020151600019168152509050600380548060010182816106fc91906109b3565b9160005260206000209060020201600083909190915060008201518160000155602082015181600101906000191690555050508180600101925050610696565b60009250505092915050565b6107506109e5565b60018054806020026020016040519081016040528092919081815260200182805480156107d257602002820191906000526020600020905b8160009054906101000a900473ffffffffffffffffffffffffffffffffffffffff1673ffffffffffffffffffffffffffffffffffffffff1681526020019060010190808311610788575b5050505050905090565b601e600281905550565b600080600090505b60018054905081101561087f578273ffffffffffffffffffffffffffffffffffffffff1660018281548110151561082157fe5b906000526020600020900160009054906101000a900473ffffffffffffffffffffffffffffffffffffffff1673ffffffffffffffffffffffffffffffffffffffff1614156108725760019150610884565b80806001019150506107ee565b600091505b50919050565b600080600061089884610439565b15156108a357600080fd5b6003848154811015156108b257fe5b90600052602060002090600202019050806000015481600101549250925050915091565b828054600181600116156101000203166002900490600052602060002090601f016020900481019282601f1061091757805160ff1916838001178555610945565b82800160010185558215610945579182015b82811115610944578251825591602001919060010190610929565b5b50905061095291906109f9565b5090565b81548183558181151161097d5781836000526020600020918201910161097c91906109f9565b5b505050565b602060405190810160405280600081525090565b604080519081016040528060008152602001600080191681525090565b8154818355818115116109e0576002028160020283600052602060002091820191016109df9190610a1e565b5b505050565b602060405190810160405280600081525090565b610a1b91905b80821115610a175760008160009055506001016109ff565b5090565b90565b610a4a91905b80821115610a4657600080820160009055600182016000905550600201610a24565b5090565b905600a165627a7a72305820ddde792ada7aa10392d478ba77dffce19de0a59572d0d63997579875bd6c011b0029",
  "source": "pragma solidity ^0.4.18;\n// We have to specify what version of compiler this code will compile with\n\ncontract Pubquiz {\n\n  /* team related functions */\n\n  struct Team {\n          string name;\n          uint score;\n  }\n\n  mapping (address => Team) teams;\n  address[] public teamAccts;\n\n  uint startpoints;  // number of gamepoints that each team gets when registering\n\n  function PubQuiz() public {\n    startpoints = 30;\n  }\n\n  function setTeam(address _address, string _teamname) public {\n      require(!validTeam(_address));\n\n      var team = teams[_address];\n      team.name = _teamname;\n      team.score = 0;\n      teamAccts.push(_address);\n  }\n\n  function getTeamAccts() view public returns (address[]) {\n      return teamAccts;\n  }\n\n  function validTeam(address _address) view public returns (bool) {\n    for(uint i=0; i < teamAccts.length; i++) {\n      if(teamAccts[i]==_address) return true;\n    }\n    return false;\n  }\n\n  function getTeam(address _address) view public returns (string, uint) {\n    require(validTeam(_address));\n\n    var team = teams[_address];\n\n    return (team.name, team.score);\n  }\n\n  /* round related functions */\n\n  struct PubQuizQuestion {\n    uint roundidx;\n    bytes32 questionhash;   // sha256 hash for this question\n  }\n\n  PubQuizQuestion[] Questions;\n\n  function existingQuestion(uint _index) view public returns (bool) {\n    return (_index>=0 && _index<=Questions.length);\n  }\n\n  function addQuestions(uint[] _rounds, bytes32[] _questionhashes) public returns (bool) {\n    for(uint i=0; i < _questionhashes.length; i++) {\n      PubQuizQuestion memory aQuestion = PubQuizQuestion(_rounds[i], _questionhashes[i]);\n      Questions.push(aQuestion);\n    }\n\n    return false;\n  }\n\n  function getQuestion(uint index) view public returns (uint, bytes32) {\n    require(existingQuestion(index));\n\n    var question = Questions[index];\n\n    return (question.roundidx, question.questionhash);\n  }\n}\n",
  "sourcePath": "/home/eric/dev/pubquiz/app/truffle/contracts/Pubquiz.sol",
  "compiler": {
    "name": "solc",
    "version": "0.4.21+commit.dfe3193c.Emscripten.clang"
  },
  "schemaVersion": "2.0.0",
  "updatedAt": "2018-04-23T13:14:54.100Z"
}