{
  "contractName": "Pubquiz",
  "abi": [
    {
      "constant": true,
      "inputs": [
        {
          "name": "",
          "type": "uint256"
        }
      ],
      "name": "teamAccts",
      "outputs": [
        {
          "name": "",
          "type": "address"
        }
      ],
      "payable": false,
      "stateMutability": "view",
      "type": "function"
    },
    {
      "constant": false,
      "inputs": [],
      "name": "PubQuiz",
      "outputs": [],
      "payable": false,
      "stateMutability": "nonpayable",
      "type": "function"
    },
    {
      "constant": false,
      "inputs": [
        {
          "name": "_address",
          "type": "address"
        },
        {
          "name": "_teamname",
          "type": "string"
        }
      ],
      "name": "setTeam",
      "outputs": [],
      "payable": false,
      "stateMutability": "nonpayable",
      "type": "function"
    },
    {
      "constant": true,
      "inputs": [],
      "name": "getTeamAccts",
      "outputs": [
        {
          "name": "",
          "type": "address[]"
        }
      ],
      "payable": false,
      "stateMutability": "view",
      "type": "function"
    },
    {
      "constant": true,
      "inputs": [
        {
          "name": "_address",
          "type": "address"
        }
      ],
      "name": "validTeam",
      "outputs": [
        {
          "name": "",
          "type": "bool"
        }
      ],
      "payable": false,
      "stateMutability": "view",
      "type": "function"
    },
    {
      "constant": true,
      "inputs": [
        {
          "name": "_address",
          "type": "address"
        }
      ],
      "name": "getTeam",
      "outputs": [
        {
          "name": "",
          "type": "string"
        },
        {
          "name": "",
          "type": "uint256"
        }
      ],
      "payable": false,
      "stateMutability": "view",
      "type": "function"
    },
    {
      "constant": true,
      "inputs": [
        {
          "name": "_index",
          "type": "uint256"
        }
      ],
      "name": "existingQuestion",
      "outputs": [
        {
          "name": "",
          "type": "bool"
        }
      ],
      "payable": false,
      "stateMutability": "view",
      "type": "function"
    },
    {
      "constant": false,
      "inputs": [
        {
          "name": "_rounds",
          "type": "uint256[]"
        },
        {
          "name": "_questionhashes",
          "type": "bytes32[]"
        }
      ],
      "name": "addQuestions",
      "outputs": [
        {
          "name": "",
          "type": "bool"
        }
      ],
      "payable": false,
      "stateMutability": "nonpayable",
      "type": "function"
    },
    {
      "constant": true,
      "inputs": [
        {
          "name": "index",
          "type": "uint256"
        }
      ],
      "name": "getQuestion",
      "outputs": [
        {
          "name": "",
          "type": "uint256"
        },
        {
          "name": "",
          "type": "bytes32"
        }
      ],
      "payable": false,
      "stateMutability": "view",
      "type": "function"
    }
  ],
  "bytecode": "0x608060405234801561001057600080fd5b50610a0f806100206000396000f300608060405260043610610099576000357c0100000000000000000000000000000000000000000000000000000000900463ffffffff168063173a09c41461009e57806322fb9325146100e35780635fc09ee61461016c57806387529f0f146101d957806390a948231461029c578063bf6e22b71461035d578063c3ba0c8c146103c9578063d4f3d77c146103e0578063db88176f1461043b575b600080fd5b3480156100aa57600080fd5b506100c96004803603810190808035906020019092919050505061048b565b604051808215151515815260200191505060405180910390f35b3480156100ef57600080fd5b5061016a600480360381019080803573ffffffffffffffffffffffffffffffffffffffff169060200190929190803590602001908201803590602001908080601f01602080910402602001604051908101604052809392919081815260200183838082843782019150505050505091929192905050506104a9565b005b34801561017857600080fd5b506101976004803603810190808035906020019092919050505061058e565b604051808273ffffffffffffffffffffffffffffffffffffffff1673ffffffffffffffffffffffffffffffffffffffff16815260200191505060405180910390f35b3480156101e557600080fd5b5061021a600480360381019080803573ffffffffffffffffffffffffffffffffffffffff1690602001909291905050506105cc565b6040518080602001838152602001828103825284818151815260200191508051906020019080838360005b83811015610260578082015181840152602081019050610245565b50505050905090810190601f16801561028d5780820380516001836020036101000a031916815260200191505b50935050505060405180910390f35b3480156102a857600080fd5b5061034360048036038101908080359060200190820180359060200190808060200260200160405190810160405280939291908181526020018383602002808284378201915050505050509192919290803590602001908201803590602001908080602002602001604051908101604052809392919081815260200183836020028082843782019150505050505091929192905050506106d4565b604051808215151515815260200191505060405180910390f35b34801561036957600080fd5b5061037261079a565b6040518080602001828103825283818151815260200191508051906020019060200280838360005b838110156103b557808201518184015260208101905061039a565b505050509050019250505060405180910390f35b3480156103d557600080fd5b506103de610828565b005b3480156103ec57600080fd5b50610421600480360381019080803573ffffffffffffffffffffffffffffffffffffffff169060200190929190505050610832565b604051808215151515815260200191505060405180910390f35b34801561044757600080fd5b50610466600480360381019080803590602001909291905050506108d5565b6040518083815260200182600019166000191681526020019250505060405180910390f35b60008082101580156104a257506003805490508211155b9050919050565b60006104b483610832565b1515156104c057600080fd5b6000808473ffffffffffffffffffffffffffffffffffffffff1673ffffffffffffffffffffffffffffffffffffffff168152602001908152602001600020905081816000019080519060200190610518929190610921565b506000816001018190555060018390806001815401808255809150509060018203906000526020600020016000909192909190916101000a81548173ffffffffffffffffffffffffffffffffffffffff021916908373ffffffffffffffffffffffffffffffffffffffff16021790555050505050565b60018181548110151561059d57fe5b906000526020600020016000915054906101000a900473ffffffffffffffffffffffffffffffffffffffff1681565b60606000806105da84610832565b15156105e557600080fd5b6000808573ffffffffffffffffffffffffffffffffffffffff1673ffffffffffffffffffffffffffffffffffffffff1681526020019081526020016000209050806000018160010154818054600181600116156101000203166002900480601f0160208091040260200160405190810160405280929190818152602001828054600181600116156101000203166002900480156106c35780601f10610698576101008083540402835291602001916106c3565b820191906000526020600020905b8154815290600101906020018083116106a657829003601f168201915b505050505091509250925050915091565b6000806106df6109a1565b600091505b835182101561078e576040805190810160405280868481518110151561070657fe5b906020019060200201518152602001858481518110151561072357fe5b9060200190602002015160001916815250905060038190806001815401808255809150509060018203906000526020600020906002020160009091929091909150600082015181600001556020820151816001019060001916905550505081806001019250506106e4565b60009250505092915050565b6060600180548060200260200160405190810160405280929190818152602001828054801561081e57602002820191906000526020600020905b8160009054906101000a900473ffffffffffffffffffffffffffffffffffffffff1673ffffffffffffffffffffffffffffffffffffffff16815260200190600101908083116107d4575b5050505050905090565b601e600281905550565b600080600090505b6001805490508110156108ca578273ffffffffffffffffffffffffffffffffffffffff1660018281548110151561086d57fe5b9060005260206000200160009054906101000a900473ffffffffffffffffffffffffffffffffffffffff1673ffffffffffffffffffffffffffffffffffffffff1614156108bd57600191506108cf565b808060010191505061083a565b600091505b50919050565b60008060006108e38461048b565b15156108ee57600080fd5b6003848154811015156108fd57fe5b90600052602060002090600202019050806000015481600101549250925050915091565b828054600181600116156101000203166002900490600052602060002090601f016020900481019282601f1061096257805160ff1916838001178555610990565b82800160010185558215610990579182015b8281111561098f578251825591602001919060010190610974565b5b50905061099d91906109be565b5090565b604080519081016040528060008152602001600080191681525090565b6109e091905b808211156109dc5760008160009055506001016109c4565b5090565b905600a165627a7a7230582002ef4050aa07692c64ae643d9294c17a1cdbe658c58d390dd129566834b10f9e0029",
  "source": "pragma solidity ^0.4.18;\n// We have to specify what version of compiler this code will compile with\n\ncontract Pubquiz {\n\n  /* team related functions */\n\n  struct Team {\n          string name;\n          uint score;\n  }\n\n  mapping (address => Team) teams;\n  address[] public teamAccts;\n\n  uint startpoints;  // number of gamepoints that each team gets when registering\n\n  function PubQuiz() public {\n    startpoints = 30;\n  }\n\n  function setTeam(address _address, string _teamname) public {\n      require(!validTeam(_address));\n\n      var team = teams[_address];\n      team.name = _teamname;\n      team.score = 0;\n      teamAccts.push(_address);\n  }\n\n  function getTeamAccts() view public returns (address[]) {\n      return teamAccts;\n  }\n\n  function validTeam(address _address) view public returns (bool) {\n    for(uint i=0; i < teamAccts.length; i++) {\n      if(teamAccts[i]==_address) return true;\n    }\n    return false;\n  }\n\n  function getTeam(address _address) view public returns (string, uint) {\n    require(validTeam(_address));\n\n    var team = teams[_address];\n\n    return (team.name, team.score);\n  }\n\n  /* round related functions */\n\n  struct PubQuizQuestion {\n    uint roundidx;\n    bytes32 questionhash;   // sha256 hash for this question\n  }\n\n  PubQuizQuestion[] Questions;\n\n  function existingQuestion(uint _index) view public returns (bool) {\n    return (_index>=0 && _index<=Questions.length);\n  }\n\n  function addQuestions(uint[] _rounds, bytes32[] _questionhashes) public returns (bool) {\n    for(uint i=0; i < _questionhashes.length; i++) {\n      PubQuizQuestion memory aQuestion = PubQuizQuestion(_rounds[i], _questionhashes[i]);\n      Questions.push(aQuestion);\n    }\n\n    return false;\n  }\n\n  function getQuestion(uint index) view public returns (uint, bytes32) {\n    require(existingQuestion(index));\n\n    var question = Questions[index];\n\n    return (question.roundidx, question.questionhash);\n  }\n}\n",
  "sourcePath": "/home/eric/dev/pubquiz/truffle/contracts/Pubquiz.sol",
  "compiler": {
    "name": "solc",
    "version": "0.4.23+commit.124ca40d.Emscripten.clang"
  },
  "schemaVersion": "2.0.0",
  "updatedAt": "2018-06-20T14:56:52.035Z"
}