{
  "contractName": "Pubquiz",
  "abi": [
    {
      "constant": true,
      "inputs": [
        {
          "name": "",
          "type": "uint256"
        }
      ],
      "name": "teamAccts",
      "outputs": [
        {
          "name": "",
          "type": "address"
        }
      ],
      "payable": false,
      "stateMutability": "view",
      "type": "function"
    },
    {
      "constant": true,
      "inputs": [],
      "name": "currentPlayerInfoHash",
      "outputs": [
        {
          "name": "",
          "type": "string"
        }
      ],
      "payable": false,
      "stateMutability": "view",
      "type": "function"
    },
    {
      "inputs": [],
      "payable": false,
      "stateMutability": "nonpayable",
      "type": "constructor"
    },
    {
      "constant": false,
      "inputs": [
        {
          "name": "_round",
          "type": "uint256"
        },
        {
          "name": "password",
          "type": "string"
        }
      ],
      "name": "setPasswordForQuestionsInRound",
      "outputs": [],
      "payable": false,
      "stateMutability": "nonpayable",
      "type": "function"
    },
    {
      "constant": true,
      "inputs": [
        {
          "name": "_round",
          "type": "uint256"
        }
      ],
      "name": "getPasswordForQuestionsInRound",
      "outputs": [
        {
          "name": "",
          "type": "string"
        }
      ],
      "payable": false,
      "stateMutability": "view",
      "type": "function"
    },
    {
      "constant": false,
      "inputs": [
        {
          "name": "_round",
          "type": "uint256"
        },
        {
          "name": "password",
          "type": "string"
        }
      ],
      "name": "setPasswordForAnswersInRound",
      "outputs": [],
      "payable": false,
      "stateMutability": "nonpayable",
      "type": "function"
    },
    {
      "constant": true,
      "inputs": [
        {
          "name": "_round",
          "type": "uint256"
        }
      ],
      "name": "getPasswordForAnswersInRound",
      "outputs": [
        {
          "name": "",
          "type": "string"
        }
      ],
      "payable": false,
      "stateMutability": "view",
      "type": "function"
    },
    {
      "constant": true,
      "inputs": [],
      "name": "getCurrentRoundForQuestions",
      "outputs": [
        {
          "name": "",
          "type": "uint256"
        }
      ],
      "payable": false,
      "stateMutability": "view",
      "type": "function"
    },
    {
      "constant": true,
      "inputs": [],
      "name": "getCurrentRoundForAnswers",
      "outputs": [
        {
          "name": "",
          "type": "uint256"
        }
      ],
      "payable": false,
      "stateMutability": "view",
      "type": "function"
    },
    {
      "constant": false,
      "inputs": [
        {
          "name": "_address",
          "type": "address"
        },
        {
          "name": "_teamname",
          "type": "string"
        }
      ],
      "name": "setTeam",
      "outputs": [],
      "payable": false,
      "stateMutability": "nonpayable",
      "type": "function"
    },
    {
      "constant": true,
      "inputs": [],
      "name": "getTeamAccts",
      "outputs": [
        {
          "name": "",
          "type": "address[]"
        }
      ],
      "payable": false,
      "stateMutability": "view",
      "type": "function"
    },
    {
      "constant": true,
      "inputs": [
        {
          "name": "_address",
          "type": "address"
        }
      ],
      "name": "validTeam",
      "outputs": [
        {
          "name": "",
          "type": "bool"
        }
      ],
      "payable": false,
      "stateMutability": "view",
      "type": "function"
    },
    {
      "constant": true,
      "inputs": [
        {
          "name": "_address",
          "type": "address"
        }
      ],
      "name": "getTeam",
      "outputs": [
        {
          "name": "",
          "type": "string"
        },
        {
          "name": "",
          "type": "uint256"
        }
      ],
      "payable": false,
      "stateMutability": "view",
      "type": "function"
    },
    {
      "constant": true,
      "inputs": [
        {
          "name": "_index",
          "type": "uint256"
        }
      ],
      "name": "existingQuestion",
      "outputs": [
        {
          "name": "",
          "type": "bool"
        }
      ],
      "payable": false,
      "stateMutability": "view",
      "type": "function"
    },
    {
      "constant": false,
      "inputs": [
        {
          "name": "_rounds",
          "type": "uint256[]"
        },
        {
          "name": "_questionhashes",
          "type": "bytes32[]"
        }
      ],
      "name": "addQuestions",
      "outputs": [
        {
          "name": "",
          "type": "bool"
        }
      ],
      "payable": false,
      "stateMutability": "nonpayable",
      "type": "function"
    },
    {
      "constant": true,
      "inputs": [
        {
          "name": "index",
          "type": "uint256"
        }
      ],
      "name": "getQuestion",
      "outputs": [
        {
          "name": "",
          "type": "uint256"
        },
        {
          "name": "",
          "type": "bytes32"
        }
      ],
      "payable": false,
      "stateMutability": "view",
      "type": "function"
    }
  ],
  "bytecode": "0x60806040523480156200001157600080fd5b5060608060405190810160405280602e81526020017f516d514132343379653758367353546243744b50616175327a4c53726948794b81526020017f48586656453433474a764150324e0000000000000000000000000000000000008152506002908051906020019062000087929190620000f1565b506040805190810160405280600881526020017f6772497531476836000000000000000000000000000000000000000000000000815250905080600360008081526020019081526020016000209080519060200190620000e992919062000178565b505062000227565b828054600181600116156101000203166002900490600052602060002090601f016020900481019282601f106200013457805160ff191683800117855562000165565b8280016001018555821562000165579182015b828111156200016457825182559160200191906001019062000147565b5b509050620001749190620001ff565b5090565b828054600181600116156101000203166002900490600052602060002090601f016020900481019282601f10620001bb57805160ff1916838001178555620001ec565b82800160010185558215620001ec579182015b82811115620001eb578251825591602001919060010190620001ce565b5b509050620001fb9190620001ff565b5090565b6200022491905b808211156200022057600081600090555060010162000206565b5090565b90565b6110d280620002376000396000f3006080604052600436106100db576000357c0100000000000000000000000000000000000000000000000000000000900463ffffffff16806304c52e2c146100e0578063173a09c41461015357806322fb9325146101985780634179ac0d146102215780634c145c1c146102c75780635fc09ee6146102f25780636c8cb1531461035f57806387529f0f146103ef5780638adcbec7146104b257806390a9482314610525578063b16bdb25146105e6578063bf6e22b71461068c578063c2f5069b146106f8578063d4f3d77c14610723578063db88176f1461077e575b600080fd5b3480156100ec57600080fd5b5061015160048036038101908080359060200190929190803590602001908201803590602001908080601f01602080910402602001604051908101604052809392919081815260200183838082843782019150505050505091929192905050506107ce565b005b34801561015f57600080fd5b5061017e600480360381019080803590602001909291905050506107fa565b604051808215151515815260200191505060405180910390f35b3480156101a457600080fd5b5061021f600480360381019080803573ffffffffffffffffffffffffffffffffffffffff169060200190929190803590602001908201803590602001908080601f0160208091040260200160405190810160405280939291908181526020018383808284378201915050505050509192919290505050610818565b005b34801561022d57600080fd5b5061024c600480360381019080803590602001909291905050506108fd565b6040518080602001828103825283818151815260200191508051906020019080838360005b8381101561028c578082015181840152602081019050610271565b50505050905090810190601f1680156102b95780820380516001836020036101000a031916815260200191505b509250505060405180910390f35b3480156102d357600080fd5b506102dc6109b2565b6040518082815260200191505060405180910390f35b3480156102fe57600080fd5b5061031d60048036038101908080359060200190929190505050610a07565b604051808273ffffffffffffffffffffffffffffffffffffffff1673ffffffffffffffffffffffffffffffffffffffff16815260200191505060405180910390f35b34801561036b57600080fd5b50610374610a45565b6040518080602001828103825283818151815260200191508051906020019080838360005b838110156103b4578082015181840152602081019050610399565b50505050905090810190601f1680156103e15780820380516001836020036101000a031916815260200191505b509250505060405180910390f35b3480156103fb57600080fd5b50610430600480360381019080803573ffffffffffffffffffffffffffffffffffffffff169060200190929190505050610ae3565b6040518080602001838152602001828103825284818151815260200191508051906020019080838360005b8381101561047657808201518184015260208101905061045b565b50505050905090810190601f1680156104a35780820380516001836020036101000a031916815260200191505b50935050505060405180910390f35b3480156104be57600080fd5b5061052360048036038101908080359060200190929190803590602001908201803590602001908080601f0160208091040260200160405190810160405280939291908181526020018383808284378201915050505050509192919290505050610beb565b005b34801561053157600080fd5b506105cc6004803603810190808035906020019082018035906020019080806020026020016040519081016040528093929190818152602001838360200280828437820191505050505050919291929080359060200190820180359060200190808060200260200160405190810160405280939291908181526020018383602002808284378201915050505050509192919290505050610c17565b604051808215151515815260200191505060405180910390f35b3480156105f257600080fd5b5061061160048036038101908080359060200190929190505050610cdd565b6040518080602001828103825283818151815260200191508051906020019080838360005b83811015610651578082015181840152602081019050610636565b50505050905090810190601f16801561067e5780820380516001836020036101000a031916815260200191505b509250505060405180910390f35b34801561069857600080fd5b506106a1610d92565b6040518080602001828103825283818151815260200191508051906020019060200280838360005b838110156106e45780820151818401526020810190506106c9565b505050509050019250505060405180910390f35b34801561070457600080fd5b5061070d610e20565b6040518082815260200191505060405180910390f35b34801561072f57600080fd5b50610764600480360381019080803573ffffffffffffffffffffffffffffffffffffffff169060200190929190505050610e75565b604051808215151515815260200191505060405180910390f35b34801561078a57600080fd5b506107a960048036038101908080359060200190929190505050610f18565b6040518083815260200182600019166000191681526020019250505060405180910390f35b806003600084815260200190815260200160002090805190602001906107f5929190610f64565b505050565b600080821015801561081157506005805490508211155b9050919050565b600061082383610e75565b15151561082f57600080fd5b6000808473ffffffffffffffffffffffffffffffffffffffff1673ffffffffffffffffffffffffffffffffffffffff168152602001908152602001600020905081816000019080519060200190610887929190610fe4565b506000816001018190555060018390806001815401808255809150509060018203906000526020600020016000909192909190916101000a81548173ffffffffffffffffffffffffffffffffffffffff021916908373ffffffffffffffffffffffffffffffffffffffff16021790555050505050565b6060600460008381526020019081526020016000208054600181600116156101000203166002900480601f0160208091040260200160405190810160405280929190818152602001828054600181600116156101000203166002900480156109a65780601f1061097b576101008083540402835291602001916109a6565b820191906000526020600020905b81548152906001019060200180831161098957829003601f168201915b50505050509050919050565b6000806000809150600090505b60026003600083815260200190815260200160002080546001816001161561010002031660029004905011156109ff5780915080806001019150506109bf565b819250505090565b600181815481101515610a1657fe5b906000526020600020016000915054906101000a900473ffffffffffffffffffffffffffffffffffffffff1681565b60028054600181600116156101000203166002900480601f016020809104026020016040519081016040528092919081815260200182805460018160011615610100020316600290048015610adb5780601f10610ab057610100808354040283529160200191610adb565b820191906000526020600020905b815481529060010190602001808311610abe57829003601f168201915b505050505081565b6060600080610af184610e75565b1515610afc57600080fd5b6000808573ffffffffffffffffffffffffffffffffffffffff1673ffffffffffffffffffffffffffffffffffffffff1681526020019081526020016000209050806000018160010154818054600181600116156101000203166002900480601f016020809104026020016040519081016040528092919081815260200182805460018160011615610100020316600290048015610bda5780601f10610baf57610100808354040283529160200191610bda565b820191906000526020600020905b815481529060010190602001808311610bbd57829003601f168201915b505050505091509250925050915091565b80600460008481526020019081526020016000209080519060200190610c12929190610f64565b505050565b600080610c22611064565b600091505b8351821015610cd15760408051908101604052808684815181101515610c4957fe5b9060200190602002015181526020018584815181101515610c6657fe5b906020019060200201516000191681525090506005819080600181540180825580915050906001820390600052602060002090600202016000909192909190915060008201518160000155602082015181600101906000191690555050508180600101925050610c27565b60009250505092915050565b6060600360008381526020019081526020016000208054600181600116156101000203166002900480601f016020809104026020016040519081016040528092919081815260200182805460018160011615610100020316600290048015610d865780601f10610d5b57610100808354040283529160200191610d86565b820191906000526020600020905b815481529060010190602001808311610d6957829003601f168201915b50505050509050919050565b60606001805480602002602001604051908101604052809291908181526020018280548015610e1657602002820191906000526020600020905b8160009054906101000a900473ffffffffffffffffffffffffffffffffffffffff1673ffffffffffffffffffffffffffffffffffffffff1681526020019060010190808311610dcc575b5050505050905090565b6000806000809150600090505b6002600460008381526020019081526020016000208054600181600116156101000203166002900490501115610e6d578091508080600101915050610e2d565b819250505090565b600080600090505b600180549050811015610f0d578273ffffffffffffffffffffffffffffffffffffffff16600182815481101515610eb057fe5b9060005260206000200160009054906101000a900473ffffffffffffffffffffffffffffffffffffffff1673ffffffffffffffffffffffffffffffffffffffff161415610f005760019150610f12565b8080600101915050610e7d565b600091505b50919050565b6000806000610f26846107fa565b1515610f3157600080fd5b600584815481101515610f4057fe5b90600052602060002090600202019050806000015481600101549250925050915091565b828054600181600116156101000203166002900490600052602060002090601f016020900481019282601f10610fa557805160ff1916838001178555610fd3565b82800160010185558215610fd3579182015b82811115610fd2578251825591602001919060010190610fb7565b5b509050610fe09190611081565b5090565b828054600181600116156101000203166002900490600052602060002090601f016020900481019282601f1061102557805160ff1916838001178555611053565b82800160010185558215611053579182015b82811115611052578251825591602001919060010190611037565b5b5090506110609190611081565b5090565b604080519081016040528060008152602001600080191681525090565b6110a391905b8082111561109f576000816000905550600101611087565b5090565b905600a165627a7a72305820f2aa83315e6939335d03e7ebeddab17b53e820af6c64dc5d813ab5725dd9645d0029",
  "source": "pragma solidity ^0.4.18;\n// We have to specify what version of compiler this code will compile with\n\ncontract Pubquiz {\n\n  /* team related functions */\n\n  struct Team {\n          string name;\n          uint score;\n  }\n\n  mapping (address => Team) teams;\n  address[] public teamAccts;\n\n  string public currentPlayerInfoHash;\n  mapping (uint => bytes) passwordQuestions;\n  mapping (uint => bytes) passwordAnswers;\n\n  function Pubquiz() public {\n    currentPlayerInfoHash = \"QmQA243ye7X6sSTbCtKPaau2zLSriHyKHXfVE43GJvAP2N\";\n    var _password1 = \"grIu1Gh6\";\n    passwordQuestions[0] = bytes(_password1);\n  }\n\n  function setPasswordForQuestionsInRound(uint _round, string password) public {\n    // require(!validTeam(_address)); -> add: only oracle (contract owner) can set password\n    // sets hash for all questions in given game roun\n    passwordQuestions[_round]= bytes(password);\n  }\n\n  function getPasswordForQuestionsInRound(uint _round) view public returns (string) {\n    // require(!validTeam(_address)); -> add: only oracle (contract owner) can set password\n    // sets hash for all questions in current game round (or false if password is not yet available?)\n    return string(passwordQuestions[_round]);\n  }\n\n  function setPasswordForAnswersInRound(uint _round, string password) public {\n    // require(!validTeam(_address)); -> add: only oracle (contract owner) can set password\n    // sets hash for all questions in given game roun\n    passwordAnswers[_round]=bytes(password);\n  }\n\n  function getPasswordForAnswersInRound(uint _round) view public returns (string) {\n    // require(!validTeam(_address)); -> add: only oracle (contract owner) can set password\n    // sets hash for all questions in current game round (or false if password is not yet available?)\n    return string(passwordAnswers[_round]);\n  }\n\n  function getCurrentRoundForQuestions() view public returns (uint) {\n    uint currentround = 0;\n    uint index = 0;\n\n    while (bytes(passwordQuestions[index]).length>2) { currentround=index; index++; }\n\n    return currentround;\n  }\n\n  function getCurrentRoundForAnswers() view public returns (uint) {\n    uint currentround = 0;\n    uint index = 0;\n\n    while (bytes(passwordAnswers[index]).length>2) { currentround=index; index++; }\n\n    return currentround;\n  }\n\n  function setTeam(address _address, string _teamname) public {\n      require(!validTeam(_address));\n\n      var team = teams[_address];\n      team.name = _teamname;\n      team.score = 0;\n      teamAccts.push(_address);\n  }\n\n  function getTeamAccts() view public returns (address[]) {\n      return teamAccts;\n  }\n\n  function validTeam(address _address) view public returns (bool) {\n    for(uint i=0; i < teamAccts.length; i++) {\n      if(teamAccts[i]==_address) return true;\n    }\n    return false;\n  }\n\n  function getTeam(address _address) view public returns (string, uint) {\n    require(validTeam(_address));\n\n    var team = teams[_address];\n\n    return (team.name, team.score);\n  }\n\n  /* round related functions */\n\n  struct PubQuizQuestion {\n    uint roundidx;\n    bytes32 questionhash;   // sha256 hash for this question\n  }\n\n  PubQuizQuestion[] Questions;\n\n  function existingQuestion(uint _index) view public returns (bool) {\n    return (_index>=0 && _index<=Questions.length);\n  }\n\n  function addQuestions(uint[] _rounds, bytes32[] _questionhashes) public returns (bool) {\n    for(uint i=0; i < _questionhashes.length; i++) {\n      PubQuizQuestion memory aQuestion = PubQuizQuestion(_rounds[i], _questionhashes[i]);\n      Questions.push(aQuestion);\n    }\n\n    return false;\n  }\n\n  function getQuestion(uint index) view public returns (uint, bytes32) {\n    require(existingQuestion(index));\n\n    var question = Questions[index];\n\n    return (question.roundidx, question.questionhash);\n  }\n}\n",
  "sourcePath": "/home/eric/dev/pubquiz/src/truffle/contracts/Pubquiz.sol",
  "compiler": {
    "name": "solc",
    "version": "0.4.23+commit.124ca40d.Emscripten.clang"
  },
  "schemaVersion": "2.0.0",
  "updatedAt": "2018-07-06T13:53:03.724Z"
}