{
  "contractName": "Pubquiz",
  "abi": [
    {
      "constant": true,
      "inputs": [
        {
          "name": "",
          "type": "uint256"
        }
      ],
      "name": "teamAccts",
      "outputs": [
        {
          "name": "",
          "type": "address"
        }
      ],
      "payable": false,
      "stateMutability": "view",
      "type": "function"
    },
    {
      "constant": true,
      "inputs": [],
      "name": "currentPlayerInfoHash",
      "outputs": [
        {
          "name": "",
          "type": "string"
        }
      ],
      "payable": false,
      "stateMutability": "view",
      "type": "function"
    },
    {
      "inputs": [],
      "payable": false,
      "stateMutability": "nonpayable",
      "type": "constructor"
    },
    {
      "constant": false,
      "inputs": [
        {
          "name": "_round",
          "type": "uint256"
        },
        {
          "name": "password",
          "type": "string"
        }
      ],
      "name": "setPasswordForQuestionsInRound",
      "outputs": [],
      "payable": false,
      "stateMutability": "nonpayable",
      "type": "function"
    },
    {
      "constant": true,
      "inputs": [
        {
          "name": "_round",
          "type": "uint256"
        }
      ],
      "name": "getPasswordForQuestionsInRound",
      "outputs": [
        {
          "name": "",
          "type": "string"
        }
      ],
      "payable": false,
      "stateMutability": "view",
      "type": "function"
    },
    {
      "constant": false,
      "inputs": [
        {
          "name": "_round",
          "type": "uint256"
        },
        {
          "name": "password",
          "type": "string"
        }
      ],
      "name": "setPasswordForAnswersInRound",
      "outputs": [],
      "payable": false,
      "stateMutability": "nonpayable",
      "type": "function"
    },
    {
      "constant": true,
      "inputs": [
        {
          "name": "_round",
          "type": "uint256"
        }
      ],
      "name": "getPasswordForAnswersInRound",
      "outputs": [
        {
          "name": "",
          "type": "string"
        }
      ],
      "payable": false,
      "stateMutability": "view",
      "type": "function"
    },
    {
      "constant": true,
      "inputs": [],
      "name": "getCurrentRoundForQuestions",
      "outputs": [
        {
          "name": "",
          "type": "uint256"
        }
      ],
      "payable": false,
      "stateMutability": "view",
      "type": "function"
    },
    {
      "constant": true,
      "inputs": [],
      "name": "getCurrentRoundForAnswers",
      "outputs": [
        {
          "name": "",
          "type": "uint256"
        }
      ],
      "payable": false,
      "stateMutability": "view",
      "type": "function"
    },
    {
      "constant": false,
      "inputs": [
        {
          "name": "_address",
          "type": "address"
        },
        {
          "name": "_teamname",
          "type": "string"
        }
      ],
      "name": "setTeam",
      "outputs": [],
      "payable": false,
      "stateMutability": "nonpayable",
      "type": "function"
    },
    {
      "constant": true,
      "inputs": [],
      "name": "getTeamAccts",
      "outputs": [
        {
          "name": "",
          "type": "address[]"
        }
      ],
      "payable": false,
      "stateMutability": "view",
      "type": "function"
    },
    {
      "constant": true,
      "inputs": [
        {
          "name": "_address",
          "type": "address"
        }
      ],
      "name": "validTeam",
      "outputs": [
        {
          "name": "",
          "type": "bool"
        }
      ],
      "payable": false,
      "stateMutability": "view",
      "type": "function"
    },
    {
      "constant": true,
      "inputs": [
        {
          "name": "_address",
          "type": "address"
        }
      ],
      "name": "getTeam",
      "outputs": [
        {
          "name": "",
          "type": "string"
        },
        {
          "name": "",
          "type": "uint256"
        }
      ],
      "payable": false,
      "stateMutability": "view",
      "type": "function"
    },
    {
      "constant": true,
      "inputs": [
        {
          "name": "_index",
          "type": "uint256"
        }
      ],
      "name": "existingQuestion",
      "outputs": [
        {
          "name": "",
          "type": "bool"
        }
      ],
      "payable": false,
      "stateMutability": "view",
      "type": "function"
    },
    {
      "constant": false,
      "inputs": [
        {
          "name": "_rounds",
          "type": "uint256[]"
        },
        {
          "name": "_questionhashes",
          "type": "bytes32[]"
        }
      ],
      "name": "addQuestions",
      "outputs": [
        {
          "name": "",
          "type": "bool"
        }
      ],
      "payable": false,
      "stateMutability": "nonpayable",
      "type": "function"
    },
    {
      "constant": true,
      "inputs": [
        {
          "name": "index",
          "type": "uint256"
        }
      ],
      "name": "getQuestion",
      "outputs": [
        {
          "name": "",
          "type": "uint256"
        },
        {
          "name": "",
          "type": "bytes32"
        }
      ],
      "payable": false,
      "stateMutability": "view",
      "type": "function"
    }
  ],
  "bytecode": "0x606060405234156200001057600080fd5b6200001a620000f8565b606060405190810160405280603081526020017f3078516d514132343379653758367353546243744b50616175327a4c5372694881526020017f794b48586656453433474a764150324e00000000000000000000000000000000815250600290805190602001906200008e9291906200010c565b506040805190810160405280600881526020017f6772497531476836000000000000000000000000000000000000000000000000815250905080600360008081526020019081526020016000209080519060200190620000f092919062000193565b505062000242565b602060405190810160405280600081525090565b828054600181600116156101000203166002900490600052602060002090601f016020900481019282601f106200014f57805160ff191683800117855562000180565b8280016001018555821562000180579182015b828111156200017f57825182559160200191906001019062000162565b5b5090506200018f91906200021a565b5090565b828054600181600116156101000203166002900490600052602060002090601f016020900481019282601f10620001d657805160ff191683800117855562000207565b8280016001018555821562000207579182015b8281111562000206578251825591602001919060010190620001e9565b5b5090506200021691906200021a565b5090565b6200023f91905b808211156200023b57600081600090555060010162000221565b5090565b90565b61111680620002526000396000f3006060604052600436106100db576000357c0100000000000000000000000000000000000000000000000000000000900463ffffffff16806304c52e2c146100e0578063173a09c41461014657806322fb9325146101815780634179ac0d146101fd5780634c145c1c146102995780635fc09ee6146102c25780636c8cb1531461032557806387529f0f146103b35780638adcbec71461046c57806390a94823146104d2578063b16bdb2514610584578063bf6e22b714610620578063c2f5069b1461068a578063d4f3d77c146106b3578063db88176f14610704575b600080fd5b34156100eb57600080fd5b610144600480803590602001909190803590602001908201803590602001908080601f0160208091040260200160405190810160405280939291908181526020018383808284378201915050505050509190505061074a565b005b341561015157600080fd5b6101676004808035906020019091905050610776565b604051808215151515815260200191505060405180910390f35b341561018c57600080fd5b6101fb600480803573ffffffffffffffffffffffffffffffffffffffff1690602001909190803590602001908201803590602001908080601f01602080910402602001604051908101604052809392919081815260200183838082843782019150505050505091905050610794565b005b341561020857600080fd5b61021e6004808035906020019091905050610876565b6040518080602001828103825283818151815260200191508051906020019080838360005b8381101561025e578082015181840152602081019050610243565b50505050905090810190601f16801561028b5780820380516001836020036101000a031916815260200191505b509250505060405180910390f35b34156102a457600080fd5b6102ac610931565b6040518082815260200191505060405180910390f35b34156102cd57600080fd5b6102e36004808035906020019091905050610986565b604051808273ffffffffffffffffffffffffffffffffffffffff1673ffffffffffffffffffffffffffffffffffffffff16815260200191505060405180910390f35b341561033057600080fd5b6103386109c5565b6040518080602001828103825283818151815260200191508051906020019080838360005b8381101561037857808201518184015260208101905061035d565b50505050905090810190601f1680156103a55780820380516001836020036101000a031916815260200191505b509250505060405180910390f35b34156103be57600080fd5b6103ea600480803573ffffffffffffffffffffffffffffffffffffffff16906020019091905050610a63565b6040518080602001838152602001828103825284818151815260200191508051906020019080838360005b83811015610430578082015181840152602081019050610415565b50505050905090810190601f16801561045d5780820380516001836020036101000a031916815260200191505b50935050505060405180910390f35b341561047757600080fd5b6104d0600480803590602001909190803590602001908201803590602001908080601f01602080910402602001604051908101604052809392919081815260200183838082843782019150505050505091905050610b71565b005b34156104dd57600080fd5b61056a60048080359060200190820180359060200190808060200260200160405190810160405280939291908181526020018383602002808284378201915050505050509190803590602001908201803590602001908080602002602001604051908101604052809392919081815260200183836020028082843782019150505050505091905050610b9d565b604051808215151515815260200191505060405180910390f35b341561058f57600080fd5b6105a56004808035906020019091905050610c5f565b6040518080602001828103825283818151815260200191508051906020019080838360005b838110156105e55780820151818401526020810190506105ca565b50505050905090810190601f1680156106125780820380516001836020036101000a031916815260200191505b509250505060405180910390f35b341561062b57600080fd5b610633610d1a565b6040518080602001828103825283818151815260200191508051906020019060200280838360005b8381101561067657808201518184015260208101905061065b565b505050509050019250505060405180910390f35b341561069557600080fd5b61069d610dae565b6040518082815260200191505060405180910390f35b34156106be57600080fd5b6106ea600480803573ffffffffffffffffffffffffffffffffffffffff16906020019091905050610e03565b604051808215151515815260200191505060405180910390f35b341561070f57600080fd5b6107256004808035906020019091905050610ea7565b6040518083815260200182600019166000191681526020019250505060405180910390f35b80600360008481526020019081526020016000209080519060200190610771929190610ef3565b505050565b600080821015801561078d57506005805490508211155b9050919050565b600061079f83610e03565b1515156107ab57600080fd5b6000808473ffffffffffffffffffffffffffffffffffffffff1673ffffffffffffffffffffffffffffffffffffffff168152602001908152602001600020905081816000019080519060200190610803929190610f73565b5060008160010181905550600180548060010182816108229190610ff3565b9160005260206000209001600085909190916101000a81548173ffffffffffffffffffffffffffffffffffffffff021916908373ffffffffffffffffffffffffffffffffffffffff16021790555050505050565b61087e61101f565b600460008381526020019081526020016000208054600181600116156101000203166002900480601f0160208091040260200160405190810160405280929190818152602001828054600181600116156101000203166002900480156109255780601f106108fa57610100808354040283529160200191610925565b820191906000526020600020905b81548152906001019060200180831161090857829003601f168201915b50505050509050919050565b6000806000809150600090505b600260036000838152602001908152602001600020805460018160011615610100020316600290049050111561097e57809150808060010191505061093e565b819250505090565b60018181548110151561099557fe5b90600052602060002090016000915054906101000a900473ffffffffffffffffffffffffffffffffffffffff1681565b60028054600181600116156101000203166002900480601f016020809104026020016040519081016040528092919081815260200182805460018160011615610100020316600290048015610a5b5780601f10610a3057610100808354040283529160200191610a5b565b820191906000526020600020905b815481529060010190602001808311610a3e57829003601f168201915b505050505081565b610a6b61101f565b600080610a7784610e03565b1515610a8257600080fd5b6000808573ffffffffffffffffffffffffffffffffffffffff1673ffffffffffffffffffffffffffffffffffffffff1681526020019081526020016000209050806000018160010154818054600181600116156101000203166002900480601f016020809104026020016040519081016040528092919081815260200182805460018160011615610100020316600290048015610b605780601f10610b3557610100808354040283529160200191610b60565b820191906000526020600020905b815481529060010190602001808311610b4357829003601f168201915b505050505091509250925050915091565b80600460008481526020019081526020016000209080519060200190610b98929190610ef3565b505050565b600080610ba8611033565b600091505b8351821015610c535760408051908101604052808684815181101515610bcf57fe5b9060200190602002015181526020018584815181101515610bec57fe5b9060200190602002015160001916815250905060058054806001018281610c139190611050565b9160005260206000209060020201600083909190915060008201518160000155602082015181600101906000191690555050508180600101925050610bad565b60009250505092915050565b610c6761101f565b600360008381526020019081526020016000208054600181600116156101000203166002900480601f016020809104026020016040519081016040528092919081815260200182805460018160011615610100020316600290048015610d0e5780601f10610ce357610100808354040283529160200191610d0e565b820191906000526020600020905b815481529060010190602001808311610cf157829003601f168201915b50505050509050919050565b610d22611082565b6001805480602002602001604051908101604052809291908181526020018280548015610da457602002820191906000526020600020905b8160009054906101000a900473ffffffffffffffffffffffffffffffffffffffff1673ffffffffffffffffffffffffffffffffffffffff1681526020019060010190808311610d5a575b5050505050905090565b6000806000809150600090505b6002600460008381526020019081526020016000208054600181600116156101000203166002900490501115610dfb578091508080600101915050610dbb565b819250505090565b600080600090505b600180549050811015610e9c578273ffffffffffffffffffffffffffffffffffffffff16600182815481101515610e3e57fe5b906000526020600020900160009054906101000a900473ffffffffffffffffffffffffffffffffffffffff1673ffffffffffffffffffffffffffffffffffffffff161415610e8f5760019150610ea1565b8080600101915050610e0b565b600091505b50919050565b6000806000610eb584610776565b1515610ec057600080fd5b600584815481101515610ecf57fe5b90600052602060002090600202019050806000015481600101549250925050915091565b828054600181600116156101000203166002900490600052602060002090601f016020900481019282601f10610f3457805160ff1916838001178555610f62565b82800160010185558215610f62579182015b82811115610f61578251825591602001919060010190610f46565b5b509050610f6f9190611096565b5090565b828054600181600116156101000203166002900490600052602060002090601f016020900481019282601f10610fb457805160ff1916838001178555610fe2565b82800160010185558215610fe2579182015b82811115610fe1578251825591602001919060010190610fc6565b5b509050610fef9190611096565b5090565b81548183558181151161101a578183600052602060002091820191016110199190611096565b5b505050565b602060405190810160405280600081525090565b604080519081016040528060008152602001600080191681525090565b81548183558181151161107d5760020281600202836000526020600020918201910161107c91906110bb565b5b505050565b602060405190810160405280600081525090565b6110b891905b808211156110b457600081600090555060010161109c565b5090565b90565b6110e791905b808211156110e3576000808201600090556001820160009055506002016110c1565b5090565b905600a165627a7a72305820cb8f9f171db29dabf3611e633e9db9605850bda22a146200370abaa471f3416c0029",
  "source": "pragma solidity ^0.4.18;\n// We have to specify what version of compiler this code will compile with\n\ncontract Pubquiz {\n\n  /* team related functions */\n\n  struct Team {\n          string name;\n          uint score;\n  }\n\n  mapping (address => Team) teams;\n  address[] public teamAccts;\n\n  string public currentPlayerInfoHash;\n  mapping (uint => bytes) passwordQuestions;\n  mapping (uint => bytes) passwordAnswers;\n\n  function Pubquiz() public {\n    currentPlayerInfoHash = \"0xQmQA243ye7X6sSTbCtKPaau2zLSriHyKHXfVE43GJvAP2N\";\n    var _password1 = \"grIu1Gh6\";\n    passwordQuestions[0] = bytes(_password1);\n  }\n\n  function setPasswordForQuestionsInRound(uint _round, string password) public {\n    // require(!validTeam(_address)); -> add: only oracle (contract owner) can set password\n    // sets hash for all questions in given game roun\n    passwordQuestions[_round]= bytes(password);\n  }\n\n  function getPasswordForQuestionsInRound(uint _round) view public returns (string) {\n    // require(!validTeam(_address)); -> add: only oracle (contract owner) can set password\n    // sets hash for all questions in current game round (or false if password is not yet available?)\n    return string(passwordQuestions[_round]);\n  }\n\n  function setPasswordForAnswersInRound(uint _round, string password) public {\n    // require(!validTeam(_address)); -> add: only oracle (contract owner) can set password\n    // sets hash for all questions in given game roun\n    passwordAnswers[_round]=bytes(password);\n  }\n\n  function getPasswordForAnswersInRound(uint _round) view public returns (string) {\n    // require(!validTeam(_address)); -> add: only oracle (contract owner) can set password\n    // sets hash for all questions in current game round (or false if password is not yet available?)\n    return string(passwordAnswers[_round]);\n  }\n\n  function getCurrentRoundForQuestions() view public returns (uint) {\n    uint currentround = 0;\n    uint index = 0;\n\n    while (bytes(passwordQuestions[index]).length>2) { currentround=index; index++; }\n\n    return currentround;\n  }\n\n  function getCurrentRoundForAnswers() view public returns (uint) {\n    uint currentround = 0;\n    uint index = 0;\n\n    while (bytes(passwordAnswers[index]).length>2) { currentround=index; index++; }\n\n    return currentround;\n  }\n\n  function setTeam(address _address, string _teamname) public {\n      require(!validTeam(_address));\n\n      var team = teams[_address];\n      team.name = _teamname;\n      team.score = 0;\n      teamAccts.push(_address);\n  }\n\n  function getTeamAccts() view public returns (address[]) {\n      return teamAccts;\n  }\n\n  function validTeam(address _address) view public returns (bool) {\n    for(uint i=0; i < teamAccts.length; i++) {\n      if(teamAccts[i]==_address) return true;\n    }\n    return false;\n  }\n\n  function getTeam(address _address) view public returns (string, uint) {\n    require(validTeam(_address));\n\n    var team = teams[_address];\n\n    return (team.name, team.score);\n  }\n\n  /* round related functions */\n\n  struct PubQuizQuestion {\n    uint roundidx;\n    bytes32 questionhash;   // sha256 hash for this question\n  }\n\n  PubQuizQuestion[] Questions;\n\n  function existingQuestion(uint _index) view public returns (bool) {\n    return (_index>=0 && _index<=Questions.length);\n  }\n\n  function addQuestions(uint[] _rounds, bytes32[] _questionhashes) public returns (bool) {\n    for(uint i=0; i < _questionhashes.length; i++) {\n      PubQuizQuestion memory aQuestion = PubQuizQuestion(_rounds[i], _questionhashes[i]);\n      Questions.push(aQuestion);\n    }\n\n    return false;\n  }\n\n  function getQuestion(uint index) view public returns (uint, bytes32) {\n    require(existingQuestion(index));\n\n    var question = Questions[index];\n\n    return (question.roundidx, question.questionhash);\n  }\n}\n",
  "sourcePath": "/storage/blockchain030/pubquiz/src/truffle/contracts/Pubquiz.sol",
  "compiler": {
    "name": "solc",
    "version": "0.4.19+commit.c4cbbb05.Emscripten.clang"
  },
  "schemaVersion": "1.0.1",
  "updatedAt": "2018-07-06T13:41:24.363Z"
}